{
  "_format": "hh-sol-artifact-1",
  "contractName": "NFTMarketplace",
  "sourceName": "contracts/NFTMarketplace.sol",
  "abi": [
    {
      "inputs": [],
      "stateMutability": "nonpayable",
      "type": "constructor"
    },
    {
      "inputs": [
        {
          "internalType": "address",
          "name": "sender",
          "type": "address"
        },
        {
          "internalType": "uint256",
          "name": "tokenId",
          "type": "uint256"
        },
        {
          "internalType": "address",
          "name": "owner",
          "type": "address"
        }
      ],
      "name": "ERC721IncorrectOwner",
      "type": "error"
    },
    {
      "inputs": [
        {
          "internalType": "address",
          "name": "operator",
          "type": "address"
        },
        {
          "internalType": "uint256",
          "name": "tokenId",
          "type": "uint256"
        }
      ],
      "name": "ERC721InsufficientApproval",
      "type": "error"
    },
    {
      "inputs": [
        {
          "internalType": "address",
          "name": "approver",
          "type": "address"
        }
      ],
      "name": "ERC721InvalidApprover",
      "type": "error"
    },
    {
      "inputs": [
        {
          "internalType": "address",
          "name": "operator",
          "type": "address"
        }
      ],
      "name": "ERC721InvalidOperator",
      "type": "error"
    },
    {
      "inputs": [
        {
          "internalType": "address",
          "name": "owner",
          "type": "address"
        }
      ],
      "name": "ERC721InvalidOwner",
      "type": "error"
    },
    {
      "inputs": [
        {
          "internalType": "address",
          "name": "receiver",
          "type": "address"
        }
      ],
      "name": "ERC721InvalidReceiver",
      "type": "error"
    },
    {
      "inputs": [
        {
          "internalType": "address",
          "name": "sender",
          "type": "address"
        }
      ],
      "name": "ERC721InvalidSender",
      "type": "error"
    },
    {
      "inputs": [
        {
          "internalType": "uint256",
          "name": "tokenId",
          "type": "uint256"
        }
      ],
      "name": "ERC721NonexistentToken",
      "type": "error"
    },
    {
      "anonymous": false,
      "inputs": [
        {
          "indexed": true,
          "internalType": "address",
          "name": "owner",
          "type": "address"
        },
        {
          "indexed": true,
          "internalType": "address",
          "name": "approved",
          "type": "address"
        },
        {
          "indexed": true,
          "internalType": "uint256",
          "name": "tokenId",
          "type": "uint256"
        }
      ],
      "name": "Approval",
      "type": "event"
    },
    {
      "anonymous": false,
      "inputs": [
        {
          "indexed": true,
          "internalType": "address",
          "name": "owner",
          "type": "address"
        },
        {
          "indexed": true,
          "internalType": "address",
          "name": "operator",
          "type": "address"
        },
        {
          "indexed": false,
          "internalType": "bool",
          "name": "approved",
          "type": "bool"
        }
      ],
      "name": "ApprovalForAll",
      "type": "event"
    },
    {
      "anonymous": false,
      "inputs": [
        {
          "indexed": false,
          "internalType": "uint256",
          "name": "_fromTokenId",
          "type": "uint256"
        },
        {
          "indexed": false,
          "internalType": "uint256",
          "name": "_toTokenId",
          "type": "uint256"
        }
      ],
      "name": "BatchMetadataUpdate",
      "type": "event"
    },
    {
      "anonymous": false,
      "inputs": [
        {
          "indexed": false,
          "internalType": "uint256",
          "name": "_tokenId",
          "type": "uint256"
        }
      ],
      "name": "MetadataUpdate",
      "type": "event"
    },
    {
      "anonymous": false,
      "inputs": [
        {
          "indexed": true,
          "internalType": "address",
          "name": "from",
          "type": "address"
        },
        {
          "indexed": true,
          "internalType": "address",
          "name": "to",
          "type": "address"
        },
        {
          "indexed": true,
          "internalType": "uint256",
          "name": "tokenId",
          "type": "uint256"
        }
      ],
      "name": "Transfer",
      "type": "event"
    },
    {
      "inputs": [
        {
          "internalType": "address",
          "name": "to",
          "type": "address"
        },
        {
          "internalType": "uint256",
          "name": "tokenId",
          "type": "uint256"
        }
      ],
      "name": "approve",
      "outputs": [],
      "stateMutability": "nonpayable",
      "type": "function"
    },
    {
      "inputs": [
        {
          "internalType": "address",
          "name": "owner",
          "type": "address"
        }
      ],
      "name": "balanceOf",
      "outputs": [
        {
          "internalType": "uint256",
          "name": "",
          "type": "uint256"
        }
      ],
      "stateMutability": "view",
      "type": "function"
    },
    {
      "inputs": [
        {
          "internalType": "string",
          "name": "tokenURI",
          "type": "string"
        },
        {
          "internalType": "uint256",
          "name": "price",
          "type": "uint256"
        }
      ],
      "name": "createtoken",
      "outputs": [
        {
          "internalType": "uint256",
          "name": "",
          "type": "uint256"
        }
      ],
      "stateMutability": "payable",
      "type": "function"
    },
    {
      "inputs": [
        {
          "internalType": "uint256",
          "name": "tokenId",
          "type": "uint256"
        }
      ],
      "name": "executeSale",
      "outputs": [],
      "stateMutability": "payable",
      "type": "function"
    },
    {
      "inputs": [],
      "name": "getAllNFTs",
      "outputs": [
        {
          "components": [
            {
              "internalType": "uint256",
              "name": "tokenId",
              "type": "uint256"
            },
            {
              "internalType": "address payable",
              "name": "owner",
              "type": "address"
            },
            {
              "internalType": "address payable",
              "name": "seller",
              "type": "address"
            },
            {
              "internalType": "uint256",
              "name": "price",
              "type": "uint256"
            },
            {
              "internalType": "bool",
              "name": "currentlyListed",
              "type": "bool"
            }
          ],
          "internalType": "struct NFTMarketplace.ListedToken[]",
          "name": "",
          "type": "tuple[]"
        }
      ],
      "stateMutability": "view",
      "type": "function"
    },
    {
      "inputs": [
        {
          "internalType": "uint256",
          "name": "tokenId",
          "type": "uint256"
        }
      ],
      "name": "getApproved",
      "outputs": [
        {
          "internalType": "address",
          "name": "",
          "type": "address"
        }
      ],
      "stateMutability": "view",
      "type": "function"
    },
    {
      "inputs": [],
      "name": "getCurrentToken",
      "outputs": [
        {
          "internalType": "uint256",
          "name": "",
          "type": "uint256"
        }
      ],
      "stateMutability": "view",
      "type": "function"
    },
    {
      "inputs": [],
      "name": "getLatestIdToListedToken",
      "outputs": [
        {
          "components": [
            {
              "internalType": "uint256",
              "name": "tokenId",
              "type": "uint256"
            },
            {
              "internalType": "address payable",
              "name": "owner",
              "type": "address"
            },
            {
              "internalType": "address payable",
              "name": "seller",
              "type": "address"
            },
            {
              "internalType": "uint256",
              "name": "price",
              "type": "uint256"
            },
            {
              "internalType": "bool",
              "name": "currentlyListed",
              "type": "bool"
            }
          ],
          "internalType": "struct NFTMarketplace.ListedToken",
          "name": "",
          "type": "tuple"
        }
      ],
      "stateMutability": "view",
      "type": "function"
    },
    {
      "inputs": [
        {
          "internalType": "uint256",
          "name": "tokenId",
          "type": "uint256"
        }
      ],
      "name": "getListedForTokenId",
      "outputs": [
        {
          "components": [
            {
              "internalType": "uint256",
              "name": "tokenId",
              "type": "uint256"
            },
            {
              "internalType": "address payable",
              "name": "owner",
              "type": "address"
            },
            {
              "internalType": "address payable",
              "name": "seller",
              "type": "address"
            },
            {
              "internalType": "uint256",
              "name": "price",
              "type": "uint256"
            },
            {
              "internalType": "bool",
              "name": "currentlyListed",
              "type": "bool"
            }
          ],
          "internalType": "struct NFTMarketplace.ListedToken",
          "name": "",
          "type": "tuple"
        }
      ],
      "stateMutability": "view",
      "type": "function"
    },
    {
      "inputs": [],
      "name": "getListedPrice",
      "outputs": [
        {
          "internalType": "uint256",
          "name": "",
          "type": "uint256"
        }
      ],
      "stateMutability": "view",
      "type": "function"
    },
    {
      "inputs": [],
      "name": "getMyNFTs",
      "outputs": [
        {
          "components": [
            {
              "internalType": "uint256",
              "name": "tokenId",
              "type": "uint256"
            },
            {
              "internalType": "address payable",
              "name": "owner",
              "type": "address"
            },
            {
              "internalType": "address payable",
              "name": "seller",
              "type": "address"
            },
            {
              "internalType": "uint256",
              "name": "price",
              "type": "uint256"
            },
            {
              "internalType": "bool",
              "name": "currentlyListed",
              "type": "bool"
            }
          ],
          "internalType": "struct NFTMarketplace.ListedToken[]",
          "name": "",
          "type": "tuple[]"
        }
      ],
      "stateMutability": "view",
      "type": "function"
    },
    {
      "inputs": [
        {
          "internalType": "address",
          "name": "owner",
          "type": "address"
        },
        {
          "internalType": "address",
          "name": "operator",
          "type": "address"
        }
      ],
      "name": "isApprovedForAll",
      "outputs": [
        {
          "internalType": "bool",
          "name": "",
          "type": "bool"
        }
      ],
      "stateMutability": "view",
      "type": "function"
    },
    {
      "inputs": [],
      "name": "name",
      "outputs": [
        {
          "internalType": "string",
          "name": "",
          "type": "string"
        }
      ],
      "stateMutability": "view",
      "type": "function"
    },
    {
      "inputs": [
        {
          "internalType": "uint256",
          "name": "tokenId",
          "type": "uint256"
        }
      ],
      "name": "ownerOf",
      "outputs": [
        {
          "internalType": "address",
          "name": "",
          "type": "address"
        }
      ],
      "stateMutability": "view",
      "type": "function"
    },
    {
      "inputs": [
        {
          "internalType": "address",
          "name": "from",
          "type": "address"
        },
        {
          "internalType": "address",
          "name": "to",
          "type": "address"
        },
        {
          "internalType": "uint256",
          "name": "tokenId",
          "type": "uint256"
        }
      ],
      "name": "safeTransferFrom",
      "outputs": [],
      "stateMutability": "nonpayable",
      "type": "function"
    },
    {
      "inputs": [
        {
          "internalType": "address",
          "name": "from",
          "type": "address"
        },
        {
          "internalType": "address",
          "name": "to",
          "type": "address"
        },
        {
          "internalType": "uint256",
          "name": "tokenId",
          "type": "uint256"
        },
        {
          "internalType": "bytes",
          "name": "data",
          "type": "bytes"
        }
      ],
      "name": "safeTransferFrom",
      "outputs": [],
      "stateMutability": "nonpayable",
      "type": "function"
    },
    {
      "inputs": [
        {
          "internalType": "address",
          "name": "operator",
          "type": "address"
        },
        {
          "internalType": "bool",
          "name": "approved",
          "type": "bool"
        }
      ],
      "name": "setApprovalForAll",
      "outputs": [],
      "stateMutability": "nonpayable",
      "type": "function"
    },
    {
      "inputs": [
        {
          "internalType": "bytes4",
          "name": "interfaceId",
          "type": "bytes4"
        }
      ],
      "name": "supportsInterface",
      "outputs": [
        {
          "internalType": "bool",
          "name": "",
          "type": "bool"
        }
      ],
      "stateMutability": "view",
      "type": "function"
    },
    {
      "inputs": [],
      "name": "symbol",
      "outputs": [
        {
          "internalType": "string",
          "name": "",
          "type": "string"
        }
      ],
      "stateMutability": "view",
      "type": "function"
    },
    {
      "inputs": [
        {
          "internalType": "uint256",
          "name": "tokenId",
          "type": "uint256"
        }
      ],
      "name": "tokenURI",
      "outputs": [
        {
          "internalType": "string",
          "name": "",
          "type": "string"
        }
      ],
      "stateMutability": "view",
      "type": "function"
    },
    {
      "inputs": [
        {
          "internalType": "address",
          "name": "from",
          "type": "address"
        },
        {
          "internalType": "address",
          "name": "to",
          "type": "address"
        },
        {
          "internalType": "uint256",
          "name": "tokenId",
          "type": "uint256"
        }
      ],
      "name": "transferFrom",
      "outputs": [],
      "stateMutability": "nonpayable",
      "type": "function"
    },
    {
      "inputs": [
        {
          "internalType": "uint256",
          "name": "_listedPrice",
          "type": "uint256"
        }
      ],
      "name": "updateListPrice",
      "outputs": [],
      "stateMutability": "payable",
      "type": "function"
    }
  ],
  "bytecode": "0x6080604052662386f26fc10000600a553480156200001c57600080fd5b506040518060400160405280600e81526020016d4e46544d61726b6574706c61636560901b815250604051806040016040528060048152602001634e46544d60e01b815250816000908162000072919062000141565b50600162000081828262000141565b5050600780546001600160a01b03191633179055506200020d565b634e487b7160e01b600052604160045260246000fd5b600181811c90821680620000c757607f821691505b602082108103620000e857634e487b7160e01b600052602260045260246000fd5b50919050565b601f8211156200013c57600081815260208120601f850160051c81016020861015620001175750805b601f850160051c820191505b81811015620001385782815560010162000123565b5050505b505050565b81516001600160401b038111156200015d576200015d6200009c565b62000175816200016e8454620000b2565b84620000ee565b602080601f831160018114620001ad5760008415620001945750858301515b600019600386901b1c1916600185901b17855562000138565b600085815260208120601f198616915b82811015620001de57888601518255948401946001909101908401620001bd565b5085821015620001fd5787850151600019600388901b60f8161c191681555b5050505050600190811b01905550565b611d33806200021d6000396000f3fe6080604052600436106101355760003560e01c806395d89b41116100ab578063c322579c1161006f578063c322579c14610358578063c87b56dd1461036b578063d1a88ae51461038b578063e0391b09146103a0578063e985e9c5146103b5578063ef2d1746146103d557600080fd5b806395d89b41146102c357806398c3df16146102d85780639b1225c414610305578063a22cb46514610318578063b88d4fde1461033857600080fd5b806342842e0e116100fd57806342842e0e1461020b578063629cb2e41461022b5780636352211e1461024d57806370a082311461026d57806377b04af71461029b5780638e564a73146102b057600080fd5b806301ffc9a71461013a57806306fdde031461016f578063081812fc14610191578063095ea7b3146101c957806323b872dd146101eb575b600080fd5b34801561014657600080fd5b5061015a610155366004611732565b6103ea565b60405190151581526020015b60405180910390f35b34801561017b57600080fd5b50610184610415565b604051610166919061179f565b34801561019d57600080fd5b506101b16101ac3660046117b2565b6104a7565b6040516001600160a01b039091168152602001610166565b3480156101d557600080fd5b506101e96101e43660046117e7565b6104d0565b005b3480156101f757600080fd5b506101e9610206366004611811565b6104df565b34801561021757600080fd5b506101e9610226366004611811565b61056f565b34801561023757600080fd5b5061024061058f565b604051610166919061188d565b34801561025957600080fd5b506101b16102683660046117b2565b610756565b34801561027957600080fd5b5061028d6102883660046118db565b610761565b604051908152602001610166565b3480156102a757600080fd5b50600a5461028d565b61028d6102be366004611982565b6107a9565b3480156102cf57600080fd5b50610184610894565b3480156102e457600080fd5b506102f86102f33660046117b2565b6108a3565b60405161016691906119db565b6101e96103133660046117b2565b61090d565b34801561032457600080fd5b506101e96103333660046119e9565b610a6d565b34801561034457600080fd5b506101e9610353366004611a25565b610a78565b6101e96103663660046117b2565b610a8f565b34801561037757600080fd5b506101846103863660046117b2565b610afe565b34801561039757600080fd5b506102f8610c0f565b3480156103ac57600080fd5b50610240610c7c565b3480156103c157600080fd5b5061015a6103d0366004611aa1565b610d8b565b3480156103e157600080fd5b5060085461028d565b60006001600160e01b03198216632483248360e11b148061040f575061040f82610db9565b92915050565b60606000805461042490611ad4565b80601f016020809104026020016040519081016040528092919081815260200182805461045090611ad4565b801561049d5780601f106104725761010080835404028352916020019161049d565b820191906000526020600020905b81548152906001019060200180831161048057829003601f168201915b5050505050905090565b60006104b282610e09565b506000828152600460205260409020546001600160a01b031661040f565b6104db828233610e42565b5050565b6001600160a01b03821661050e57604051633250574960e11b8152600060048201526024015b60405180910390fd5b600061051b838333610e4f565b9050836001600160a01b0316816001600160a01b031614610569576040516364283d7b60e01b81526001600160a01b0380861660048301526024820184905282166044820152606401610505565b50505050565b61058a83838360405180602001604052806000815250610a78565b505050565b60085460609060008060015b838111610608576000818152600b60205260409020600101546001600160a01b03163314806105e357506000818152600b60205260409020600201546001600160a01b031633145b156105f6576105f3600184611b24565b92505b8061060081611b37565b91505061059b565b5060008267ffffffffffffffff811115610624576106246118f6565b60405190808252806020026020018201604052801561065d57816020015b61064a6116eb565b8152602001906001900390816106425790505b50905060015b84811161074d576000818152600b60205260409020600101546001600160a01b03163314806106ab57506000818152600b60205260409020600201546001600160a01b031633145b1561073b576000818152600b6020908152604091829020825160a0810184528154815260018201546001600160a01b039081169382019390935260028201549092169282019290925260038201546060820152600482015460ff1615156080820152835184908690811061072157610721611b50565b6020908102919091010152610737600185611b24565b9350505b8061074581611b37565b915050610663565b50949350505050565b600061040f82610e09565b60006001600160a01b03821661078d576040516322718ad960e21b815260006004820152602401610505565b506001600160a01b031660009081526003602052604090205490565b6000600a5434146107fc5760405162461bcd60e51b815260206004820152601960248201527f53656e6420656e6f75676820657468657220746f206c697374000000000000006044820152606401610505565b600082116108575760405162461bcd60e51b815260206004820152602260248201527f4d616b652073757265207468652070726963652069736e2774206e6567617469604482015261766560f01b6064820152608401610505565b6008805490600061086783611b37565b90915550506008546108793382610f48565b6108838185610f62565b61088d8184610fb2565b9392505050565b60606001805461042490611ad4565b6108ab6116eb565b506000908152600b6020908152604091829020825160a0810184528154815260018201546001600160a01b03908116938201939093526002820154909216928201929092526003820154606082015260049091015460ff161515608082015290565b6000818152600b6020526040902060038101546002909101546001600160a01b03163482146109a6576040805162461bcd60e51b81526020600482015260248101919091527f506c65617365207375626d6974207468652061736b696e67207072696365206960448201527f6e206f7264657220746f20636f6d706c657465207468652070757263686173656064820152608401610505565b6000838152600b6020526040812060048101805460ff1916905560020180546001600160a01b0319163317905560098054916109e183611b37565b91905055506109f130338561104b565b6109fb30846104d0565b600754600a546040516001600160a01b039092169181156108fc0291906000818181858888f19350505050158015610a37573d6000803e3d6000fd5b506040516001600160a01b038216903480156108fc02916000818181858888f19350505050158015610569573d6000803e3d6000fd5b6104db3383836110fb565b610a838484846104df565b6105698484848461119a565b6007546001600160a01b03163314610af95760405162461bcd60e51b815260206004820152602760248201527f6f6e6c79204f776e65722063616e2055706461746520746865206c697374696e6044820152666720707269636560c81b6064820152608401610505565b600a55565b6060610b0982610e09565b5060008281526006602052604081208054610b2390611ad4565b80601f0160208091040260200160405190810160405280929190818152602001828054610b4f90611ad4565b8015610b9c5780601f10610b7157610100808354040283529160200191610b9c565b820191906000526020600020905b815481529060010190602001808311610b7f57829003601f168201915b505050505090506000610bba60408051602081019091526000815290565b90508051600003610bcc575092915050565b815115610bfe578082604051602001610be6929190611b66565b60405160208183030381529060405292505050919050565b610c07846112c3565b949350505050565b610c176116eb565b506008546000908152600b6020908152604091829020825160a0810184528154815260018201546001600160a01b03908116938201939093526002820154909216928201929092526003820154606082015260049091015460ff161515608082015290565b60085460609060008167ffffffffffffffff811115610c9d57610c9d6118f6565b604051908082528060200260200182016040528015610cd657816020015b610cc36116eb565b815260200190600190039081610cbb5790505b509050600060015b838111610d82576000818152600b6020908152604091829020825160a0810184528154815260018201546001600160a01b039081169382019390935260028201549092169282019290925260038201546060820152600482015460ff16151560808201528451859085908110610d5657610d56611b50565b6020908102919091010152610d6c600184611b24565b9250508080610d7a90611b37565b915050610cde565b50909392505050565b6001600160a01b03918216600090815260056020908152604080832093909416825291909152205460ff1690565b60006001600160e01b031982166380ac58cd60e01b1480610dea57506001600160e01b03198216635b5e139f60e01b145b8061040f57506301ffc9a760e01b6001600160e01b031983161461040f565b6000818152600260205260408120546001600160a01b03168061040f57604051637e27328960e01b815260048101849052602401610505565b61058a8383836001611337565b6000828152600260205260408120546001600160a01b0390811690831615610e7c57610e7c81848661143d565b6001600160a01b03811615610eba57610e99600085600080611337565b6001600160a01b038116600090815260036020526040902080546000190190555b6001600160a01b03851615610ee9576001600160a01b0385166000908152600360205260409020805460010190555b60008481526002602052604080822080546001600160a01b0319166001600160a01b0389811691821790925591518793918516917fddf252ad1be2c89b69c2b068fc378daa952ba7f163c4a11628f55a4df523b3ef91a4949350505050565b6104db8282604051806020016040528060008152506114a1565b6000828152600660205260409020610f7a8282611be3565b506040518281527ff8e1a15aba9398e019f0b49df1a4fde98ee17ae345cb5f6b5e2c27f5033e8ce79060200160405180910390a15050565b6040805160a081018252838152306020808301828152338486018181526060860188815260016080880181815260008c8152600b9097529890952096518755925193860180546001600160a01b039586166001600160a01b03199182161790915590516002870180549190951691161790925551600384015592516004909201805492151560ff19909316929092179091556104db9190845b6001600160a01b03821661107557604051633250574960e11b815260006004820152602401610505565b600061108383836000610e4f565b90506001600160a01b0381166110af57604051637e27328960e01b815260048101839052602401610505565b836001600160a01b0316816001600160a01b031614610569576040516364283d7b60e01b81526001600160a01b0380861660048301526024820184905282166044820152606401610505565b6001600160a01b03821661112d57604051630b61174360e31b81526001600160a01b0383166004820152602401610505565b6001600160a01b03838116600081815260056020908152604080832094871680845294825291829020805460ff191686151590811790915591519182527f17307eab39ab6107e8899845ad3d59bd9653f200f220920489ca2b5937696c31910160405180910390a3505050565b6001600160a01b0383163b1561056957604051630a85bd0160e11b81526001600160a01b0384169063150b7a02906111dc903390889087908790600401611ca3565b6020604051808303816000875af1925050508015611217575060408051601f3d908101601f1916820190925261121491810190611ce0565b60015b611280573d808015611245576040519150601f19603f3d011682016040523d82523d6000602084013e61124a565b606091505b50805160000361127857604051633250574960e11b81526001600160a01b0385166004820152602401610505565b805181602001fd5b6001600160e01b03198116630a85bd0160e11b146112bc57604051633250574960e11b81526001600160a01b0385166004820152602401610505565b5050505050565b60606112ce82610e09565b5060006112e660408051602081019091526000815290565b90506000815111611306576040518060200160405280600081525061088d565b80611310846114b8565b604051602001611321929190611b66565b6040516020818303038152906040529392505050565b808061134b57506001600160a01b03821615155b1561140d57600061135b84610e09565b90506001600160a01b038316158015906113875750826001600160a01b0316816001600160a01b031614155b801561139a57506113988184610d8b565b155b156113c35760405163a9fbf51f60e01b81526001600160a01b0384166004820152602401610505565b811561140b5783856001600160a01b0316826001600160a01b03167f8c5be1e5ebec7d5bd14f71427d1e84f3dd0314c0f7b2291e5b200ac8c7c3b92560405160405180910390a45b505b5050600090815260046020526040902080546001600160a01b0319166001600160a01b0392909216919091179055565b61144883838361154b565b61058a576001600160a01b03831661147657604051637e27328960e01b815260048101829052602401610505565b60405163177e802f60e01b81526001600160a01b038316600482015260248101829052604401610505565b6114ab83836115ae565b61058a600084848461119a565b606060006114c583611613565b600101905060008167ffffffffffffffff8111156114e5576114e56118f6565b6040519080825280601f01601f19166020018201604052801561150f576020820181803683370190505b5090508181016020015b600019016f181899199a1a9b1b9c1cb0b131b232b360811b600a86061a8153600a850494508461151957509392505050565b60006001600160a01b03831615801590610c075750826001600160a01b0316846001600160a01b0316148061158557506115858484610d8b565b80610c075750506000908152600460205260409020546001600160a01b03908116911614919050565b6001600160a01b0382166115d857604051633250574960e11b815260006004820152602401610505565b60006115e683836000610e4f565b90506001600160a01b0381161561058a576040516339e3563760e11b815260006004820152602401610505565b60008072184f03e93ff9f4daa797ed6e38ed64bf6a1f0160401b83106116525772184f03e93ff9f4daa797ed6e38ed64bf6a1f0160401b830492506040015b6d04ee2d6d415b85acef8100000000831061167e576d04ee2d6d415b85acef8100000000830492506020015b662386f26fc10000831061169c57662386f26fc10000830492506010015b6305f5e10083106116b4576305f5e100830492506008015b61271083106116c857612710830492506004015b606483106116da576064830492506002015b600a831061040f5760010192915050565b6040805160a08101825260008082526020820181905291810182905260608101829052608081019190915290565b6001600160e01b03198116811461172f57600080fd5b50565b60006020828403121561174457600080fd5b813561088d81611719565b60005b8381101561176a578181015183820152602001611752565b50506000910152565b6000815180845261178b81602086016020860161174f565b601f01601f19169290920160200192915050565b60208152600061088d6020830184611773565b6000602082840312156117c457600080fd5b5035919050565b80356001600160a01b03811681146117e257600080fd5b919050565b600080604083850312156117fa57600080fd5b611803836117cb565b946020939093013593505050565b60008060006060848603121561182657600080fd5b61182f846117cb565b925061183d602085016117cb565b9150604084013590509250925092565b805182526020808201516001600160a01b039081169184019190915260408083015190911690830152606080820151908301526080908101511515910152565b6020808252825182820181905260009190848201906040850190845b818110156118cf576118bc83855161184d565b9284019260a092909201916001016118a9565b50909695505050505050565b6000602082840312156118ed57600080fd5b61088d826117cb565b634e487b7160e01b600052604160045260246000fd5b600067ffffffffffffffff80841115611927576119276118f6565b604051601f8501601f19908116603f0116810190828211818310171561194f5761194f6118f6565b8160405280935085815286868601111561196857600080fd5b858560208301376000602087830101525050509392505050565b6000806040838503121561199557600080fd5b823567ffffffffffffffff8111156119ac57600080fd5b8301601f810185136119bd57600080fd5b6119cc8582356020840161190c565b95602094909401359450505050565b60a0810161040f828461184d565b600080604083850312156119fc57600080fd5b611a05836117cb565b915060208301358015158114611a1a57600080fd5b809150509250929050565b60008060008060808587031215611a3b57600080fd5b611a44856117cb565b9350611a52602086016117cb565b925060408501359150606085013567ffffffffffffffff811115611a7557600080fd5b8501601f81018713611a8657600080fd5b611a958782356020840161190c565b91505092959194509250565b60008060408385031215611ab457600080fd5b611abd836117cb565b9150611acb602084016117cb565b90509250929050565b600181811c90821680611ae857607f821691505b602082108103611b0857634e487b7160e01b600052602260045260246000fd5b50919050565b634e487b7160e01b600052601160045260246000fd5b8082018082111561040f5761040f611b0e565b600060018201611b4957611b49611b0e565b5060010190565b634e487b7160e01b600052603260045260246000fd5b60008351611b7881846020880161174f565b835190830190611b8c81836020880161174f565b01949350505050565b601f82111561058a57600081815260208120601f850160051c81016020861015611bbc5750805b601f850160051c820191505b81811015611bdb57828155600101611bc8565b505050505050565b815167ffffffffffffffff811115611bfd57611bfd6118f6565b611c1181611c0b8454611ad4565b84611b95565b602080601f831160018114611c465760008415611c2e5750858301515b600019600386901b1c1916600185901b178555611bdb565b600085815260208120601f198616915b82811015611c7557888601518255948401946001909101908401611c56565b5085821015611c935787850151600019600388901b60f8161c191681555b5050505050600190811b01905550565b6001600160a01b0385811682528416602082015260408101839052608060608201819052600090611cd690830184611773565b9695505050505050565b600060208284031215611cf257600080fd5b815161088d8161171956fea2646970667358221220ece41fb1508ef16040258e0160bd249ed27bfa0bdae41aae0c48bde4f84680c564736f6c63430008140033",
  "linkReferences": {},
  "deployedLinkReferences": {}
}